{
  "_format": "hh-sol-artifact-1",
  "contractName": "ProductTracer",
  "sourceName": "contracts/ProductTracer.sol",
  "abi": [
    {
      "anonymous": false,
      "inputs": [
        {
          "indexed": true,
          "internalType": "address",
          "name": "previousOwner",
          "type": "address"
        },
        {
          "indexed": true,
          "internalType": "address",
          "name": "newOwner",
          "type": "address"
        }
      ],
      "name": "OwnershipTransferred",
      "type": "event"
    },
    {
      "anonymous": false,
      "inputs": [
        {
          "indexed": false,
          "internalType": "uint256",
          "name": "id",
          "type": "uint256"
        },
        {
          "indexed": false,
          "internalType": "address",
          "name": "producer",
          "type": "address"
        },
        {
          "indexed": false,
          "internalType": "string",
          "name": "metadataCID",
          "type": "string"
        }
      ],
      "name": "ProductCreated",
      "type": "event"
    },
    {
      "anonymous": false,
      "inputs": [
        {
          "indexed": false,
          "internalType": "uint256",
          "name": "productId",
          "type": "uint256"
        },
        {
          "indexed": false,
          "internalType": "enum ProductTracer.Status",
          "name": "status",
          "type": "uint8"
        },
        {
          "indexed": false,
          "internalType": "address",
          "name": "actor",
          "type": "address"
        },
        {
          "indexed": false,
          "internalType": "string",
          "name": "eventMetadataCID",
          "type": "string"
        }
      ],
      "name": "TraceEventAdded",
      "type": "event"
    },
    {
      "inputs": [
        {
          "internalType": "uint256",
          "name": "_productId",
          "type": "uint256"
        },
        {
          "internalType": "enum ProductTracer.Status",
          "name": "_status",
          "type": "uint8"
        },
        {
          "internalType": "string",
          "name": "_eventMetadataCID",
          "type": "string"
        }
      ],
      "name": "addTraceEvent",
      "outputs": [],
      "stateMutability": "nonpayable",
      "type": "function"
    },
    {
      "inputs": [
        {
          "internalType": "string",
          "name": "_metadataCID",
          "type": "string"
        }
      ],
      "name": "createProduct",
      "outputs": [],
      "stateMutability": "nonpayable",
      "type": "function"
    },
    {
      "inputs": [
        {
          "internalType": "uint256",
          "name": "_productId",
          "type": "uint256"
        }
      ],
      "name": "getProductEvents",
      "outputs": [
        {
          "components": [
            {
              "internalType": "uint256",
              "name": "productId",
              "type": "uint256"
            },
            {
              "internalType": "enum ProductTracer.Status",
              "name": "status",
              "type": "uint8"
            },
            {
              "internalType": "address",
              "name": "actor",
              "type": "address"
            },
            {
              "internalType": "string",
              "name": "eventMetadataCID",
              "type": "string"
            },
            {
              "internalType": "uint256",
              "name": "timestamp",
              "type": "uint256"
            }
          ],
          "internalType": "struct ProductTracer.TraceEvent[]",
          "name": "",
          "type": "tuple[]"
        }
      ],
      "stateMutability": "view",
      "type": "function"
    },
    {
      "inputs": [],
      "name": "owner",
      "outputs": [
        {
          "internalType": "address",
          "name": "",
          "type": "address"
        }
      ],
      "stateMutability": "view",
      "type": "function"
    },
    {
      "inputs": [],
      "name": "productCount",
      "outputs": [
        {
          "internalType": "uint256",
          "name": "",
          "type": "uint256"
        }
      ],
      "stateMutability": "view",
      "type": "function"
    },
    {
      "inputs": [
        {
          "internalType": "uint256",
          "name": "",
          "type": "uint256"
        },
        {
          "internalType": "uint256",
          "name": "",
          "type": "uint256"
        }
      ],
      "name": "productEvents",
      "outputs": [
        {
          "internalType": "uint256",
          "name": "productId",
          "type": "uint256"
        },
        {
          "internalType": "enum ProductTracer.Status",
          "name": "status",
          "type": "uint8"
        },
        {
          "internalType": "address",
          "name": "actor",
          "type": "address"
        },
        {
          "internalType": "string",
          "name": "eventMetadataCID",
          "type": "string"
        },
        {
          "internalType": "uint256",
          "name": "timestamp",
          "type": "uint256"
        }
      ],
      "stateMutability": "view",
      "type": "function"
    },
    {
      "inputs": [
        {
          "internalType": "uint256",
          "name": "",
          "type": "uint256"
        }
      ],
      "name": "products",
      "outputs": [
        {
          "internalType": "uint256",
          "name": "id",
          "type": "uint256"
        },
        {
          "internalType": "address",
          "name": "producer",
          "type": "address"
        },
        {
          "internalType": "string",
          "name": "metadataCID",
          "type": "string"
        },
        {
          "internalType": "uint256",
          "name": "creationTime",
          "type": "uint256"
        }
      ],
      "stateMutability": "view",
      "type": "function"
    },
    {
      "inputs": [],
      "name": "renounceOwnership",
      "outputs": [],
      "stateMutability": "nonpayable",
      "type": "function"
    },
    {
      "inputs": [
        {
          "internalType": "address",
          "name": "newOwner",
          "type": "address"
        }
      ],
      "name": "transferOwnership",
      "outputs": [],
      "stateMutability": "nonpayable",
      "type": "function"
    }
  ],
  "bytecode": "0x608060405234801561001057600080fd5b5061002d61002261003260201b60201c565b61003a60201b60201c565b6100fe565b600033905090565b60008060009054906101000a900473ffffffffffffffffffffffffffffffffffffffff169050816000806101000a81548173ffffffffffffffffffffffffffffffffffffffff021916908373ffffffffffffffffffffffffffffffffffffffff1602179055508173ffffffffffffffffffffffffffffffffffffffff168173ffffffffffffffffffffffffffffffffffffffff167f8be0079c531659141344cd1fd0a4f28419497f9722a3daafe3b4186f6b6457e060405160405180910390a35050565b6116e28061010d6000396000f3fe608060405234801561001057600080fd5b50600436106100935760003560e01c8063715018a611610066578063715018a6146101345780637acc0b201461013e5780638da5cb5b14610171578063e0f6ef871461018f578063f2fde38b146101ad57610093565b806302ec06be14610098578063409a8fcd146100b45780635089e742146100e45780635ed059c914610100575b600080fd5b6100b260048036038101906100ad9190610b97565b6101c9565b005b6100ce60048036038101906100c99190610c16565b6102e3565b6040516100db9190610ec1565b60405180910390f35b6100fe60048036038101906100f99190610f08565b61048c565b005b61011a60048036038101906101159190610f77565b61064d565b60405161012b95949392919061102e565b60405180910390f35b61013c610755565b005b61015860048036038101906101539190610c16565b610769565b6040516101689493929190611088565b60405180910390f35b610179610841565b60405161018691906110d4565b60405180910390f35b61019761086a565b6040516101a491906110ef565b60405180910390f35b6101c760048036038101906101c29190611136565b610870565b005b600160008154809291906101dc90611192565b9190505550604051806080016040528060015481526020013373ffffffffffffffffffffffffffffffffffffffff168152602001828152602001428152506002600060015481526020019081526020016000206000820151816000015560208201518160010160006101000a81548173ffffffffffffffffffffffffffffffffffffffff021916908373ffffffffffffffffffffffffffffffffffffffff160217905550604082015181600201908161029591906113e6565b50606082015181600301559050507f91bfc064380de20e1c90ea2ed78d0358b4ab45d446c0b93b0b07bc86f95897da60015433836040516102d8939291906114b8565b60405180910390a150565b606060036000838152602001908152602001600020805480602002602001604051908101604052809291908181526020016000905b8282101561048157838290600052602060002090600402016040518060a0016040529081600082015481526020016001820160009054906101000a900460ff16600481111561036a57610369610c7e565b5b600481111561037c5761037b610c7e565b5b81526020016001820160019054906101000a900473ffffffffffffffffffffffffffffffffffffffff1673ffffffffffffffffffffffffffffffffffffffff1673ffffffffffffffffffffffffffffffffffffffff1681526020016002820180546103e690611209565b80601f016020809104026020016040519081016040528092919081815260200182805461041290611209565b801561045f5780601f106104345761010080835404028352916020019161045f565b820191906000526020600020905b81548152906001019060200180831161044257829003601f168201915b5050505050815260200160038201548152505081526020019060010190610318565b505050509050919050565b60008311801561049e57506001548311155b6104dd576040517f08c379a00000000000000000000000000000000000000000000000000000000081526004016104d490611542565b60405180910390fd5b600360008481526020019081526020016000206040518060a0016040528085815260200184600481111561051457610513610c7e565b5b81526020013373ffffffffffffffffffffffffffffffffffffffff1681526020018381526020014281525090806001815401808255809150506001900390600052602060002090600402016000909190919091506000820151816000015560208201518160010160006101000a81548160ff0219169083600481111561059d5761059c610c7e565b5b021790555060408201518160010160016101000a81548173ffffffffffffffffffffffffffffffffffffffff021916908373ffffffffffffffffffffffffffffffffffffffff16021790555060608201518160020190816105fe91906113e6565b506080820151816003015550507f98d4c7d2fcc98a8ce7a354ebc227f758f788f48f4452e19d90c7bf5efdff9341838333846040516106409493929190611562565b60405180910390a1505050565b6003602052816000526040600020818154811061066957600080fd5b9060005260206000209060040201600091509150508060000154908060010160009054906101000a900460ff16908060010160019054906101000a900473ffffffffffffffffffffffffffffffffffffffff16908060020180546106cc90611209565b80601f01602080910402602001604051908101604052809291908181526020018280546106f890611209565b80156107455780601f1061071a57610100808354040283529160200191610745565b820191906000526020600020905b81548152906001019060200180831161072857829003601f168201915b5050505050908060030154905085565b61075d6108f3565b6107676000610971565b565b60026020528060005260406000206000915090508060000154908060010160009054906101000a900473ffffffffffffffffffffffffffffffffffffffff16908060020180546107b890611209565b80601f01602080910402602001604051908101604052809291908181526020018280546107e490611209565b80156108315780601f1061080657610100808354040283529160200191610831565b820191906000526020600020905b81548152906001019060200180831161081457829003601f168201915b5050505050908060030154905084565b60008060009054906101000a900473ffffffffffffffffffffffffffffffffffffffff16905090565b60015481565b6108786108f3565b600073ffffffffffffffffffffffffffffffffffffffff168173ffffffffffffffffffffffffffffffffffffffff16036108e7576040517f08c379a00000000000000000000000000000000000000000000000000000000081526004016108de90611620565b60405180910390fd5b6108f081610971565b50565b6108fb610a35565b73ffffffffffffffffffffffffffffffffffffffff16610919610841565b73ffffffffffffffffffffffffffffffffffffffff161461096f576040517f08c379a00000000000000000000000000000000000000000000000000000000081526004016109669061168c565b60405180910390fd5b565b60008060009054906101000a900473ffffffffffffffffffffffffffffffffffffffff169050816000806101000a81548173ffffffffffffffffffffffffffffffffffffffff021916908373ffffffffffffffffffffffffffffffffffffffff1602179055508173ffffffffffffffffffffffffffffffffffffffff168173ffffffffffffffffffffffffffffffffffffffff167f8be0079c531659141344cd1fd0a4f28419497f9722a3daafe3b4186f6b6457e060405160405180910390a35050565b600033905090565b6000604051905090565b600080fd5b600080fd5b600080fd5b600080fd5b6000601f19601f8301169050919050565b7f4e487b7100000000000000000000000000000000000000000000000000000000600052604160045260246000fd5b610aa482610a5b565b810181811067ffffffffffffffff82111715610ac357610ac2610a6c565b5b80604052505050565b6000610ad6610a3d565b9050610ae28282610a9b565b919050565b600067ffffffffffffffff821115610b0257610b01610a6c565b5b610b0b82610a5b565b9050602081019050919050565b82818337600083830152505050565b6000610b3a610b3584610ae7565b610acc565b905082815260208101848484011115610b5657610b55610a56565b5b610b61848285610b18565b509392505050565b600082601f830112610b7e57610b7d610a51565b5b8135610b8e848260208601610b27565b91505092915050565b600060208284031215610bad57610bac610a47565b5b600082013567ffffffffffffffff811115610bcb57610bca610a4c565b5b610bd784828501610b69565b91505092915050565b6000819050919050565b610bf381610be0565b8114610bfe57600080fd5b50565b600081359050610c1081610bea565b92915050565b600060208284031215610c2c57610c2b610a47565b5b6000610c3a84828501610c01565b91505092915050565b600081519050919050565b600082825260208201905092915050565b6000819050602082019050919050565b610c7881610be0565b82525050565b7f4e487b7100000000000000000000000000000000000000000000000000000000600052602160045260246000fd5b60058110610cbe57610cbd610c7e565b5b50565b6000819050610ccf82610cad565b919050565b6000610cdf82610cc1565b9050919050565b610cef81610cd4565b82525050565b600073ffffffffffffffffffffffffffffffffffffffff82169050919050565b6000610d2082610cf5565b9050919050565b610d3081610d15565b82525050565b600081519050919050565b600082825260208201905092915050565b60005b83811015610d70578082015181840152602081019050610d55565b60008484015250505050565b6000610d8782610d36565b610d918185610d41565b9350610da1818560208601610d52565b610daa81610a5b565b840191505092915050565b600060a083016000830151610dcd6000860182610c6f565b506020830151610de06020860182610ce6565b506040830151610df36040860182610d27565b5060608301518482036060860152610e0b8282610d7c565b9150506080830151610e206080860182610c6f565b508091505092915050565b6000610e378383610db5565b905092915050565b6000602082019050919050565b6000610e5782610c43565b610e618185610c4e565b935083602082028501610e7385610c5f565b8060005b85811015610eaf5784840389528151610e908582610e2b565b9450610e9b83610e3f565b925060208a01995050600181019050610e77565b50829750879550505050505092915050565b60006020820190508181036000830152610edb8184610e4c565b905092915050565b60058110610ef057600080fd5b50565b600081359050610f0281610ee3565b92915050565b600080600060608486031215610f2157610f20610a47565b5b6000610f2f86828701610c01565b9350506020610f4086828701610ef3565b925050604084013567ffffffffffffffff811115610f6157610f60610a4c565b5b610f6d86828701610b69565b9150509250925092565b60008060408385031215610f8e57610f8d610a47565b5b6000610f9c85828601610c01565b9250506020610fad85828601610c01565b9150509250929050565b610fc081610be0565b82525050565b610fcf81610cd4565b82525050565b610fde81610d15565b82525050565b600082825260208201905092915050565b600061100082610d36565b61100a8185610fe4565b935061101a818560208601610d52565b61102381610a5b565b840191505092915050565b600060a0820190506110436000830188610fb7565b6110506020830187610fc6565b61105d6040830186610fd5565b818103606083015261106f8185610ff5565b905061107e6080830184610fb7565b9695505050505050565b600060808201905061109d6000830187610fb7565b6110aa6020830186610fd5565b81810360408301526110bc8185610ff5565b90506110cb6060830184610fb7565b95945050505050565b60006020820190506110e96000830184610fd5565b92915050565b60006020820190506111046000830184610fb7565b92915050565b61111381610d15565b811461111e57600080fd5b50565b6000813590506111308161110a565b92915050565b60006020828403121561114c5761114b610a47565b5b600061115a84828501611121565b91505092915050565b7f4e487b7100000000000000000000000000000000000000000000000000000000600052601160045260246000fd5b600061119d82610be0565b91507fffffffffffffffffffffffffffffffffffffffffffffffffffffffffffffffff82036111cf576111ce611163565b5b600182019050919050565b7f4e487b7100000000000000000000000000000000000000000000000000000000600052602260045260246000fd5b6000600282049050600182168061122157607f821691505b602082108103611234576112336111da565b5b50919050565b60008190508160005260206000209050919050565b60006020601f8301049050919050565b600082821b905092915050565b60006008830261129c7fffffffffffffffffffffffffffffffffffffffffffffffffffffffffffffffff8261125f565b6112a6868361125f565b95508019841693508086168417925050509392505050565b6000819050919050565b60006112e36112de6112d984610be0565b6112be565b610be0565b9050919050565b6000819050919050565b6112fd836112c8565b611311611309826112ea565b84845461126c565b825550505050565b600090565b611326611319565b6113318184846112f4565b505050565b5b818110156113555761134a60008261131e565b600181019050611337565b5050565b601f82111561139a5761136b8161123a565b6113748461124f565b81016020851015611383578190505b61139761138f8561124f565b830182611336565b50505b505050565b600082821c905092915050565b60006113bd6000198460080261139f565b1980831691505092915050565b60006113d683836113ac565b9150826002028217905092915050565b6113ef82610d36565b67ffffffffffffffff81111561140857611407610a6c565b5b6114128254611209565b61141d828285611359565b600060209050601f831160018114611450576000841561143e578287015190505b61144885826113ca565b8655506114b0565b601f19841661145e8661123a565b60005b8281101561148657848901518255600182019150602085019450602081019050611461565b868310156114a3578489015161149f601f8916826113ac565b8355505b6001600288020188555050505b505050505050565b60006060820190506114cd6000830186610fb7565b6114da6020830185610fd5565b81810360408301526114ec8184610ff5565b9050949350505050565b7f496e76616c69642070726f647563742049440000000000000000000000000000600082015250565b600061152c601283610fe4565b9150611537826114f6565b602082019050919050565b6000602082019050818103600083015261155b8161151f565b9050919050565b60006080820190506115776000830187610fb7565b6115846020830186610fc6565b6115916040830185610fd5565b81810360608301526115a38184610ff5565b905095945050505050565b7f4f776e61626c653a206e6577206f776e657220697320746865207a65726f206160008201527f6464726573730000000000000000000000000000000000000000000000000000602082015250565b600061160a602683610fe4565b9150611615826115ae565b604082019050919050565b60006020820190508181036000830152611639816115fd565b9050919050565b7f4f776e61626c653a2063616c6c6572206973206e6f7420746865206f776e6572600082015250565b6000611676602083610fe4565b915061168182611640565b602082019050919050565b600060208201905081810360008301526116a581611669565b905091905056fea26469706673582212209ce98c698b546058db3caa156330af40cb9d677aa30794b4e99ec5fd4df98d7c64736f6c63430008130033",
  "linkReferences": {},
  "deployedLinkReferences": {}
}